:020000040800F2
:1000000000000220BD2D00080D2B0008152B000854
:100010001D2B0008252B00082D2B000800000000D8
:10002000000000000000000000000000352B000868
:10003000432B000800000000512B00085F2B000834
:100040000D2E00080D2E00080D2E00080D2E0008A4
:100050000D2E00080D2E00080D2E00080D2E000894
:100060000D2E00080D2E00080D2E00080D2E000884
:100070000D2E00080D2E00080D2E00080D2E000874
:100080000D2E00080D2E00080D2E000800000000A7
:100090000000000000000000000000000D2E00081D
:1000A0006D2B0008812B0008952B0008A92B000858
:1000B000BD2B00080D2E0008D12B00080D2E0008C6
:1000C0000D2E00080D2E00080D2E00080D2E000824
:1000D0000D2E0008E52B00080D2E00080000000082
:1000E0000D2E00080D2E00080D2E00080000000047
:1000F0000000000000000000000000000D2E0008BD
:10010000000000000D2E0008F92B00080D2E00083D
:1001100000000000000000000000000000000000DF
:100120000D2E00080D2E00080D2E00080D2E0008C3
:100130000D2E00080000000000000000000000007C
:100140000000000000000000000000000D2E00086C
:100150000D2E00080D2E00080D2E00080D2E000893
:100160000D2E00080D2E0008000000000000000009
:10017000000000000000000000000000000000007F
:10018000000000000D2E000800000000000000002C
:080190000D2E00080D2E0008E1
:1001A00010B5054C237833B9044B13B10448AFF3B1
:1001B00000800123237010BDD40100200000000046
:1001C000E0AC000808B5034B1BB103490348AFF38B
:1001D000008008BD00000000D8010020E0AC00084D
:1001E00001F0FF01102A2BDB10F0070F08D010F8E8
:1001F000013B013A8B422DD010F0070F42B3F6D1EC
:10020000F0B441EA012141EA014122F007047FF004
:1002100000070023F0E80256083C85EA010586EA5B
:10022000010685FA47F5A3FA87F586FA47F6A5FA97
:1002300087F68EB9EED1F0BC01F0FF0102F00702A3
:1002400032B110F8013B013A83EA010313B1F8D14E
:100250000020704701387047002D06BF354603382F
:10026000073815F0010F07D1013015F4807F02BF68
:10027000013015F4C03F0130F0BC0138704700BFB9
:10028000034613F8012B002AFBD1181A01387047D6
:1002900081F0004102E000BF83F0004330B54FEA37
:1002A00041044FEA430594EA050F08BF90EA020FA4
:1002B0001FBF54EA000C55EA020C7FEA645C7FEA37
:1002C000655C00F0E2804FEA5454D4EB5555B8BF5A
:1002D0006D420CDD2C4480EA020281EA030382EACB
:1002E000000083EA010180EA020281EA0303362D5D
:1002F00088BF30BD11F0004F4FEA01314FF4801C30
:100300004CEA113102D0404261EB410113F0004F41
:100310004FEA03334CEA133302D0524263EB4303F8
:1003200094EA050F00F0A780A4F10104D5F1200E96
:100330000DDB02FA0EFC22FA05F2801841F10001F1
:1003400003FA0EF2801843FA05F359410EE0A5F1C5
:1003500020050EF1200E012A03FA0EFC28BF4CF0F6
:10036000020C43FA05F3C01851EBE37101F00045AC
:1003700007D54FF0000EDCF1000C7EEB00006EEBB9
:100380000101B1F5801F1BD3B1F5001F0CD3490843
:100390005FEA30004FEA3C0C04F101044FEA44529A
:1003A00012F5800F80F09A80BCF1004F08BF5FEA21
:1003B000500C50F1000041EB045141EA050130BD01
:1003C0005FEA4C0C404141EB0101013C28BFB1F513
:1003D000801FE9D291F0000F04BF01460020B1FA5E
:1003E00081F308BF2033A3F10B03B3F120020CDA31
:1003F0000C3208DD02F1140CC2F10C0201FA0CF00F
:1004000021FA02F10CE002F11402D8BFC2F1200C73
:1004100001FA02F120FA0CFCDCBF41EA0C01904029
:10042000E41AA2BF01EB0451294330BD6FEA040472
:100430001F3C1CDA0C340EDC04F11404C4F120025D
:1004400020FA04F001FA02F340EA030021FA04F36F
:1004500045EA030130BDC4F10C04C4F1200220FAC6
:1004600002F001FA04F340EA0300294630BD21FA04
:1004700004F0294630BD94F0000F83F4801306BFCA
:1004800081F480110134013D4EE77FEA645C18BFBE
:100490007FEA655C29D094EA050F08BF90EA020F55
:1004A00005D054EA000C04BF1946104630BD91EA4D
:1004B000030F1EBF0021002030BD5FEA545C05D150
:1004C0004000494128BF41F0004130BD14F580048F
:1004D0003CBF01F5801130BD01F0004545F0FE4103
:1004E00041F470014FF0000030BD7FEA645C1ABF38
:1004F000194610467FEA655C1CBF0B46024650EA6F
:10050000013406BF52EA033591EA030F41F400219A
:1005100030BD00BF90F0000F04BF0021704730B520
:100520004FF4806404F132044FF000054FF00001F5
:1005300050E700BF90F0000F04BF0021704730B5B6
:100540004FF4806404F1320410F0004548BF40428B
:100550004FF000013EE700BF42004FEAE2014FEAE0
:1005600031014FEA02701FBF12F07F4393F07F4FBB
:1005700081F06051704732F07F4208BF704793F0BE
:100580007F4F04BF41F40021704730B54FF46074D1
:1005900001F0004521F000411CE700BF50EA0102D4
:1005A00008BF704730B54FF000050AE050EA01027D
:1005B00008BF704730B511F0004502D5404261EBED
:1005C00041014FF4806404F132045FEA915C3FF42E
:1005D000D8AE4FF003025FEADC0C18BF03325FEACB
:1005E000DC0C18BF033202EBDC02C2F1200300FA7C
:1005F00003FC20FA02F001FA03FE40EA0E0021FAA1
:1006000002F11444BDE600BF70B54FF0FF0C4CF48E
:10061000E06C1CEA11541DBF1CEA135594EA0C0F40
:1006200095EA0C0F00F0DEF82C4481EA030621EA7B
:100630004C5123EA4C5350EA013518BF52EA0335B6
:1006400041F4801143F4801338D0A0FB02CE4FF068
:100650000005E1FB02E506F00042E0FB03E54FF098
:100660000006E1FB03569CF0000F18BF4EF0010E90
:10067000A4F1FF04B6F5007F64F5407404D25FEA8C
:100680004E0E6D4146EB060642EAC62141EA55513F
:100690004FEAC52040EA5E504FEACE2EB4F1FD0C81
:1006A00088BFBCF5E06F1ED8BEF1004F08BF5FEAFF
:1006B000500E50F1000041EB045170BD06F00046B1
:1006C00046EA010140EA020081EA0301B4EB5C045E
:1006D000C2BFD4EB0C0541EA045170BD41F4801156
:1006E0004FF0000E013C00F3AB8014F1360FDEBF7B
:1006F000002001F0004170BDC4F10004203C35DA57
:100700000C341BDC04F11404C4F1200500FA05F3D9
:1007100020FA04F001FA05F240EA020001F000427A
:1007200021F0004110EBD37021FA04F642EB0601F0
:100730005EEA430E08BF20EAD37070BDC4F10C041A
:10074000C4F1200500FA04F320FA05F001FA04F2DE
:1007500040EA020001F0004110EBD37041F10001CA
:100760005EEA430E08BF20EAD37070BDC4F12005D5
:1007700000FA05F24EEA020E20FA04F301FA05F23D
:1007800043EA020321FA04F001F0004121FA04F2E5
:1007900020EA020000EBD3705EEA430E08BF20EAB5
:1007A000D37070BD94F0000F0FD101F000464000EF
:1007B00041EB010111F4801F08BF013CF7D041EA71
:1007C000060195F0000F18BF704703F00046520075
:1007D00043EB030313F4801F08BF013DF7D043EA46
:1007E0000603704794EA0C0F0CEA135518BF95EAFC
:1007F0000C0F0CD050EA410618BF52EA4306D1D183
:1008000081EA030101F000414FF0000070BD50EAA1
:10081000410606BF1046194652EA430619D094EA2B
:100820000C0F02D150EA013613D195EA0C0F05D115
:1008300052EA03361CBF104619460AD181EA030169
:1008400001F0004141F0FE4141F470014FF0000021
:1008500070BD41F0FE4141F4780170BD70B54FF0BC
:10086000FF0C4CF4E06C1CEA11541DBF1CEA13553C
:1008700094EA0C0F95EA0C0F00F0A7F8A4EB05041E
:1008800081EA030E52EA03354FEA013100F0888015
:100890004FEA03334FF0805545EA131343EA1263DE
:1008A0004FEA022245EA111545EA10654FEA002693
:1008B0000EF000419D4208BF964244F1FD0404F54C
:1008C000407402D25B084FEA3202B61A65EB0305A8
:1008D0005B084FEA32024FF480104FF4002CB6EB65
:1008E000020E75EB030E22BFB61A754640EA0C00E5
:1008F0005B084FEA3202B6EB020E75EB030E22BF25
:10090000B61A754640EA5C005B084FEA3202B6EB65
:10091000020E75EB030E22BFB61A754640EA9C0024
:100920005B084FEA3202B6EB020E75EB030E22BFF4
:10093000B61A754640EADC0055EA060E18D04FEAB2
:10094000051545EA16754FEA06164FEAC30343EA52
:1009500052734FEAC2025FEA1C1CC0D111F4801F1F
:100960000BD141EA00014FF000004FF0004CB6E718
:1009700011F4801F04BF01430020B4F1FD0C88BFB7
:10098000BCF5E06F3FF6AFAEB5EB030C04BFB6EBC2
:10099000020C5FEA500C50F1000041EB045170BDB5
:1009A0000EF0004E4EEA113114EB5C04C2BFD4EBE2
:1009B0000C0541EA045170BD41F480114FF0000E66
:1009C000013C90E645EA060E8DE60CEA135594EAE2
:1009D0000C0F08BF95EA0C0F3FF43BAF94EA0C0FE5
:1009E0000AD150EA01347FF434AF95EA0C0F7FF45A
:1009F00025AF104619462CE795EA0C0F06D152EAAE
:100A000003353FF4FDAE1046194622E750EA410691
:100A100018BF52EA43067FF4C5AE50EA41047FF4A2
:100A20000DAF52EA43057FF4EBAE12E74FF0FF3C07
:100A300006E000BF4FF0010C02E000BF4FF0010CD8
:100A40004DF804CD4FEA410C7FEA6C5C4FEA430C51
:100A500018BF7FEA6C5C1BD001B050EA410C0CBFA0
:100A600052EA430C91EA030F02BF90EA020F002002
:100A7000704710F1000F91EA030F58BF994208BF69
:100A800090422CBFD8176FEAE37040F00100704726
:100A90004FEA410C7FEA6C5C02D150EA013C07D17D
:100AA0004FEA430C7FEA6C5CD6D152EA033CD3D0C8
:100AB0005DF8040B704700BF8446104662468C46C2
:100AC0001946634600E000BF01B5FFF7B7FF0028F5
:100AD00048BF10F1000F01BD4DF808EDFFF7F4FF1E
:100AE0000CBF012000205DF808FB00BF4DF808EDA9
:100AF000FFF7EAFF34BF012000205DF808FB00BFCC
:100B00004DF808EDFFF7E0FF94BF012000205DF8ED
:100B100008FB00BF4DF808EDFFF7CEFF94BF0120A2
:100B200000205DF808FB00BF4DF808EDFFF7C4FF9B
:100B300034BF012000205DF808FB00BF4FEA410CE4
:100B40007FEA6C5C02D150EA013C0AD14FEA430CC7
:100B50007FEA6C5C02D152EA033C02D14FF0000004
:100B600070474FF0010070474FEA410212F5001242
:100B700015D211D56FF47873B3EB625212D94FEAE4
:100B8000C12343F0004343EA505311F0004F23FACE
:100B900002F018BF404270474FF00000704750EA23
:100BA000013005D111F0004008BF6FF000407047E0
:100BB0004FF00000704700BF4A0011D212F500123A
:100BC00011D20DD56FF47873B3EB62520ED44FEAA5
:100BD000C12343F0004343EA505323FA02F0704725
:100BE0004FF00000704750EA013002D14FF0FF3063
:100BF00070474FF0000070474FEA4102B2F1E04306
:100C000024BFB3F5001CDCF1FE5C0DD901F0004CF3
:100C10004FEAC0024CEA5070B2F1004F40EB830043
:100C200008BF20F00100704711F0804F21D113F16F
:100C30003872BCBF01F00040704741F480114FEAA8
:100C40005252C2F11802C2F1200C10FA0CF320FA31
:100C500002F018BF40F001004FEAC1234FEAD3234E
:100C600003FA0CFC40EA0C0023FA02F34FEA4303B8
:100C7000CCE77FEA625307D150EA01331EBF4FF041
:100C8000FE4040F44000704701F0004040F0FE405C
:100C900040F40000704700BF53B94AB9002908BFAB
:100CA00000281CBF4FF0FF314FF0FF3000F0A0B91B
:100CB000ADF1080C6DE904CE00F03CF8DDF804E07D
:100CC000DDE9022304B0704738B500220023044652
:100CD0000D46FFF70BFF28B920462946BDE83840EE
:100CE00000F00AB8204605F1004100F005F8404246
:100CF00061EB410138BD00BFD0B50C4B0022064668
:100D00000F46FFF781FCFFF757FF0446FFF702FC91
:100D1000074B0022FFF778FC02460B463046394667
:100D2000FFF7BAFAFFF748FF2146D0BD0000F03DBB
:100D30000000F0412DE9F047089D0C46002B4ED1F4
:100D400094468C458646B2FA82F262D94AB1C2F123
:100D50002003914020FA03F30CFA02FC194300FA35
:100D600002FE4FEA1C471FFA8CF6B1FBF7F44FEA7C
:100D70001E4307FB141143EA014304FB06F19942A9
:100D80000AD91CEB030304F1FF3080F01281994271
:100D900040F20F81023C6344591A1FFA8EF3B1FBF3
:100DA000F7F007FB101143EA014300FB06F69E42F1
:100DB0000AD91CEB030300F1FF3180F0FC809E4256
:100DC00040F2F980634402389B1B40EA0440002152
:100DD0001DB1D3400022C5E90032BDE8F0878B4247
:100DE00005D90DB1C5E9000100210846F5E7B3FAC0
:100DF00083F1002946D1A34202D39042C0F0F08093
:100E0000861A64EB03030120002DE6D0C5E90063D8
:100E1000E3E7002A40F09080A1EB0C044FEA1C4865
:100E20001FFA8CF70121B4FBF8F64FEA1E4308FBCA
:100E3000164443EA044307FB06F0984208D91CEB2A
:100E4000030306F1FF3402D2984200F2CD80264619
:100E50001C1A1FFA8EF3B4FBF8F008FB104443EAA7
:100E6000044300FB07F79F4208D91CEB030300F182
:100E7000FF3402D29F4200F2B0802046DB1B40EAE2
:100E80000640A5E7C1F120068B4022FA06F71F4372
:100E900020FA06FC04FA01F343EA0C03F44000FADA
:100EA00001F8380C4FEA1349B4FBF0FE1FFA87FC37
:100EB00000FB1E4449EA04440EFB0CF9A14502FA6A
:100EC00001F20AD93C190EF1FF3A80F08480A14565
:100ED00040F28180AEF1020E3C44A4EB09041FFAFB
:100EE00083F9B4FBF0F300FB134449EA044403FB29
:100EF0000CFCA44507D93C1903F1FF3067D2A44587
:100F000065D9023B3C4443EA0E40A0FB0293A4EBAC
:100F10000C049C42CE469C4651D34ED055B1B8EB02
:100F20000E0364EB0C0404FA06F6CB401E43CC40DF
:100F3000C5E90064002150E7C2F1200320FA03F163
:100F40000CFA02FC24FA03F394400C434FEA1C48C9
:100F500000FA02FE1FFA8CF7B3FBF8F008FB103121
:100F6000230C43EA014300FB07F1994208D91CEB2B
:100F7000030300F1FF362CD299422AD90238634488
:100F80005B1AA4B2B3FBF8F108FB113344EA034443
:100F900001FB07F3A34208D91CEB040401F1FF365F
:100FA00013D2A34211D902396444E41A41EA004140
:100FB00039E70446F0E6084606E7C845AED2B9EB85
:100FC000020E63EB070C0138A8E73146EDE7034654
:100FD00099E73046D4E7D6467FE7634402384DE7C9
:100FE0000646234608460FE7023E634430E700BF4B
:100FF000704700BF80B483B000AF78607B68002B7F
:10100000B8BF5B4218460C37BD465DF8047B70479D
:1010100080B485B000AFF860B9607A60FB68BA68E8
:101020001A60FB687A685A60FB6800229A60FB6865
:101030000022DA60FB6800221A61FB6801221A753F
:10104000FB684FF07E529A61FB684FF00002DA6154
:10105000FB684FF000021A62FB6800225A62FB68CC
:101060004FF000029A62FB68044ADA62FB68184695
:101070001437BD465DF8047B704700BF000087430E
:1010800080B584B000AFF860B9607A60FB68BA6878
:101090001A60FB687A685A60FB6800221A61FB6874
:1010A0000022DA60FB684FF000029A62FB68104A87
:1010B000DA6201F013FF0246FB685A62FB681B68A4
:1010C000002B11D0FB681B681B68002B0CD0FB6841
:1010D0001B681B683C21184603F0BEF9FB681B68BF
:1010E0001B681B6800225A6200BF1037BD4680BDD6
:1010F0000000874380B485B000AFF86087ED020A36
:10110000C7ED010A87ED001AFB68BA689A61FB68AF
:101110007A68DA61FB683A681A6200BF1437BD4624
:101120005DF8047B704780B485B000AF78607B6861
:101130001B68002B37D07B681B681B68002B32D0E4
:101140007B681B681B681B681B6803F01003002B7F
:101150000CBF01230023FB737B68FA7B1A757B6845
:101160001B681B681B685B6ABB817B681B681B680C
:101170001B6800225A627B681B7D002B06D07B68AF
:101180001A69BB891A447B681A610DE0BB89002B80
:101190000AD0BB895B427B817B681A697B89D21A42
:1011A0007B681A6100E000BF1437BD465DF8047B20
:1011B0007047000080B483B000AF786039607B680E
:1011C0005B68002B00F019813B6841F28732934243
:1011D00002DD41F287333B603B68834A934201DA88
:1011E000814B3B603B68002B54DD7B685B685B6830
:1011F000002B06D17B685B681B681B683A685A63E2
:101200001DE07B685B685B68042B06D17B685B68CC
:101210001B681B683A689A6311E07B685B685B68CF
:10122000082B06D17B685B681B681B683A68DA6329
:1012300005E07B685B681B681B683A681A647B681A
:101240005B68DB68002B06D17B685B689B681B686A
:1012500000225A63D2E07B685B68DB68042B06D10E
:101260007B685B689B681B6800229A63C6E07B68AA
:101270005B68DB68082B06D17B685B689B681B6832
:101280000022DA63BAE07B685B689B681B68002217
:101290001A64B3E03B68002B58DA7B685B685B68D4
:1012A000002B06D17B685B681B681B6800225A63B1
:1012B0001DE07B685B685B68042B06D17B685B681C
:1012C0001B681B6800229A6311E07B685B685B689F
:1012D000082B06D17B685B681B681B680022DA63F9
:1012E00005E07B685B681B681B6800221A647B68EA
:1012F0005B68DB68002B07D13B685A427B685B6800
:101300009B681B685A6379E07B685B68DB68042B29
:1013100007D13B685A427B685B689B681B689A638D
:101320006CE07B685B68DB68082B07D13B685A423E
:101330007B685B689B681B68DA635FE03B685A42C6
:101340007B685B689B681B681A6457E07B685B6816
:101350005B68002B06D17B685B681B681B680022FA
:101360005A631DE07B685B685B68042B06D17B6871
:101370005B681B681B6800229A6311E07B685B68EE
:101380005B68082B06D17B685B681B681B680022C2
:10139000DA6305E07B685B681B681B6800221A64DF
:1013A0007B685B68DB68002B06D17B685B689B68A9
:1013B0001B6800225A6321E07B685B68DB68042BB2
:1013C00006D17B685B689B681B6800229A6315E006
:1013D0007B685B68DB68082B08D17B685B689B686F
:1013E0001B680022DA6309E079ECFFFF7B685B6829
:1013F0009B681B6800221A6400E000BF0C37BD46E2
:101400005DF8047B704700BF80B487B000AF7860A0
:1014100087ED000A7B68DA687B681B69D31A07EEE0
:10142000903AF8EEE77AC7ED047A97ED047AD7EDB3
:10143000007A27EE277A314BD3ED007A77EE277AC0
:101440002E4BC3ED007A2D4BD3ED007A9FED2C7A15
:10145000F4EEC77AF1EE10FA02DD284B294A1A6041
:10146000264BD3ED007A9FED287AF4EEC77AF1EEA1
:1014700010FA02D5214B254A1A604FF000037B6118
:10148000D7ED007AF5EEC07AF1EE10FA0CDD204BC4
:10149000D3ED007A97ED047A77EE676A97ED007ADC
:1014A000C6EE877AC7ED057A7B6893ED067AD7EDAD
:1014B000047A27EE277A7B68D3ED076A0F4BD3EDCA
:1014C000007A66EEA77A37EE277A7B68D3ED086A52
:1014D000D7ED057A66EEA77A77EE277AC7ED037A1D
:1014E0000B4A3B691360FB6807EE903AB0EE670A5F
:1014F0001C37BD465DF8047B704700BFF00100203B
:1015000000389C4500389C4500389CC500389CC577
:10151000F401002080B586B000AF786001F0DEFCF9
:1015200078617B685B6A7A69D31A07EE903AB8EE05
:10153000677ADFED146AC7EE267AC7ED047AD7ED35
:10154000047AF5EEC07AF1EE10FA00DC15E0786866
:10155000FFF7E9FD97ED040A7868FFF755FF87ED7F
:10156000030AD7ED037AFDEEE77A17EE901A786852
:10157000FFF720FE7B687A695A6200BF1837BD46C4
:1015800080BD00BF00007A4480B586B000AF7860AF
:1015900087ED000A7B68D3ED0A7A97ED007AB4EE06
:1015A000E77AF1EE10FA02D57B689B6A3B607B68B4
:1015B000D3ED0B7A97ED007AB4EEE77AF1EE10FAFC
:1015C00002DD7B68DB6A3B607B681B6907EE903A53
:1015D000B8EEE77ADFED2A6AC7EE267A9FED297A20
:1015E00067EE877AC7ED047A3869FEF7B5FF0246E1
:1015F0000B469FED211B43EC102B04F065FE53ECD2
:10160000102B10461946FFF7F7FA03467B61D7ED1A
:10161000057AF5EEC07AF1EE10FA07D5D7ED057A26
:101620009FED187A77EE877AC7ED057A97ED007A05
:10163000D7ED057A77EE677AC7ED037A97ED047AEE
:10164000D7ED037A77EE277AC7ED027A97ED027A23
:10165000DFED0C6AC7EE267A9FED097A67EE877A8E
:10166000FDEEE77A17EE902A7B68DA6000BF183744
:10167000BD4680BDAFF300800000000000807640D2
:10168000008089450000B44380B582B000AF786027
:1016900039607B68DA687B681B69D31A1846FFF7E4
:1016A000A9FC02463B689342ACBF01230023DBB296
:1016B00018460837BD4680BD82B090B484B000AFF4
:1016C000F860B9607A60FB61FB68BA681A60FB6811
:1016D0007A685A60FB684FF07E529A60FB6800227D
:1016E000DA60FB6803F1100407F11C030FCB84E8F8
:1016F0000F00FB6800221A62FB6800225A62FB6836
:101700004FF000029A62FB68074ADA62FB68074AF8
:101710001A63FB684FF07E525A63FB681846103715
:10172000BD4690BC02B07047000087430000C8432C
:1017300082B090B585B000AFF860B9607A607B6226
:10174000FB68BA681A60FB687A685A60FB6803F144
:10175000100407F124030FCB84E80F00FB6800227C
:101760005A62FB6800221A62FB684FF000029A621C
:10177000FB680C4ADA62FB680B4A1A63FB684FF09D
:101780007E525A639FED090AF86800F089F800213B
:10179000F86800F06CF800BF1437BD46BDE8904013
:1017A00002B07047000087430000C84300007A443D
:1017B00080B582B000AF78607B685A6A7B681B6A2C
:1017C0009A42B4BF01230023DBB2002B17D00121C2
:1017D000786800F0BEF97B681B681B686FF0010237
:1017E0001A617B681A687B685B681946104602F0CC
:1017F00079FC7B681B68184602F08AFB33E07B6843
:101800005A6A7B681B6A9A42CCBF01230023DBB271
:10181000002B17D00021786800F09BF97B681B68CB
:101820001B686FF001021A617B681A687B685B684D
:101830001946104602F056FC7B681B68184602F0F9
:1018400067FB10E07B681A687B685B681946104686
:1018500002F0F8FC7B681B68184602F0BBFB002115
:10186000786800F004F800BF0837BD4680BD80B539
:1018700084B000AF78600B46FB70FB78002B01D082
:10188000002300E00123FB737B6898697B689B8BD6
:10189000FA7B194601F07AFE00BF1037BD4680BDC5
:1018A00080B485B000AF786087ED000AD7ED007A8C
:1018B000F5EEC07AF1EE10FA51D97B681B68002B67
:1018C0004DD0DFED2A6A97ED007AC6EE877AFCEEFE
:1018D000E77A17EE903A013BFB60FB68B3F5803F77
:1018E00003D34FF6FF73FB6004E0FB689E2B01D827
:1018F0009F23FB607B681B681B68FA68DA627B6861
:101900001B68FA68DA607B685B68002B07D1FB68AC
:101910005A1C7B681B681B6852085A6320E07B686E
:101920005B68042B07D1FB685A1C7B681B681B682B
:1019300052089A6314E07B685B68082B07D1FB6848
:101940005A1C7B681B681B685208DA6308E0FB6856
:101950005A1C7B681B681B6852081A6400E000BFB1
:101960001437BD465DF8047B704700BF0024744BFC
:1019700080B582B000AF78607B685A6A7B681B6A6A
:101980009A42B4BF01230023DBB2002B05D07B6851
:101990005B6A5A1C7B685A620FE07B685A6A7B68F4
:1019A0001B6A9A42CCBF01230023DBB2002B04D078
:1019B0007B685B6A5A1E7B685A627B685A6A7B68DE
:1019C0001B6A9A420CBF01230023DBB2002B10D00C
:1019D0007B681A687B685B681946104602F032FC27
:1019E0007B681B68184602F0F5FA00217868FFF75B
:1019F0003EFF00BF0837BD4680BD80B582B000AF56
:101A0000786039607B683A681A6201217868FFF76C
:101A10002EFF7868FFF7CCFE00BF0837BD4680BDBB
:101A200080B588B000AF786087ED000A7B68D3EDA1
:101A30000A7A97ED007AB4EEE77AF1EE10FA02D561
:101A40007B689B6A3B607B68D3ED0B7A97ED007AED
:101A5000B4EEE77AF1EE10FA02DD7B68DB6A3B60F8
:101A60007B685B6A07EE903AF8EEE76A7B6893ED75
:101A70000C7A7B68D3ED0D7A27EE277AC6EE877A4B
:101A80009FED2D7A67EE877AC7ED067AB869FEF783
:101A900063FD02460B469FED261B43EC102B04F022
:101AA00013FC53EC102B10461946FFF7A5F803461C
:101AB000FB61D7ED077AF5EEC07AF1EE10FA07D5A3
:101AC000D7ED077A9FED1C7A77EE877AC7ED077A14
:101AD00097ED007AD7ED077A77EE677AC7ED057A4A
:101AE00097ED067AD7ED057A77EE277AC7ED047A77
:101AF000D7ED047ADFED106A87EEA67A7B68D3ED26
:101B00000C7A27EE277A7B68D3ED0D7A67EE277A79
:101B1000FDEEE77A17EE903AFB60F9687868FFF718
:101B20006CFF00BF2037BD4680BD00BFAFF3008013
:101B300000000000008076400000B44380B582B011
:101B400000AF78607868FFF713FF00BF0837BD4625
:101B500080BD80B584B000AF78600B46FB70FB7829
:101B6000002B01D0012300E00023FB737B68186980
:101B70007B689B8AFA7B194601F008FD00BF10378D
:101B8000BD4680BD80B483B000AF78607B681A6AC0
:101B90007B685B6AD31A18460C37BD465DF8047B38
:101BA00070470000B0B5AEB004AF01F031F900F0FD
:101BB00071FA00F053FD00F0D5FA00F093FB00F04D
:101BC00021FC00F07DFC00F01BFD01227F498048D4
:101BD00003F0E9FB7F4B07F17C040FCB84E80F0097
:101BE0006C4607F1800393E8070084E80700FB6F69
:101BF000002279497948FFF79BFD9FED790A7748E4
:101C0000FFF74EFE774B07F16C040FCB84E80F0013
:101C10006C4607F1700393E8070084E80700FB6E49
:101C2000002271497148FFF783FD9FED6D0A6F48EF
:101C3000FFF736FE6E4B6F4A1A606F4B6F4A1A60A1
:101C40006D4B04225A606C4B6C4A9A606A4B0022BE
:101C5000DA60694A66496A48FFF712FA0021674864
:101C600002F040FA0421654802F03CFA9FED651A43
:101C7000DFED650AB0EE000A6148FFF73BFA4FF46A
:101C8000FA7001F037F901F029F903465F4A136051
:101C900001F024F903465E4A13605948FFF73AFC05
:101CA0005C4B1B78002B09D001F018F90246584B09
:101CB0001B68D31A322B01D9012300E00023002B2B
:101CC00000F0CC80534B1B781A46534B002199549B
:101CD0005249514806F0F6F9C7F8A4004F490020D0
:101CE00006F0F0F9C7F8A0004C49002006F0EAF928
:101CF000C7F89C00D7F8A430002B00F09580D7F8E7
:101D0000A030002B00F09080D7F89C30002B00F022
:101D10008B80D7F8A40004F00FFC53EC102B104676
:101D20001946FEF769FF0346C7F89830D7F8A000B8
:101D300004F002FC53EC102B10461946FEF75CFF32
:101D40000346C7F89430D7F89C0004F0F5FB53EC39
:101D5000102B10461946FEF74FFF0346C7F8903088
:101D6000D7ED267ABDEEE77AD7ED257AFDEEE76A64
:101D7000D7ED247AFDEEE77A17EE903A38460093D5
:101D800016EE903A17EE102A254906F01DF93B464B
:101D90001846FEF775FA03469AB2394664230C4892
:101DA00003F076FA97ED260A0C48FFF739FE97ED17
:101DB000250A0E48FFF734FE97ED240A1048FFF776
:101DC000E3FB184B01221A7045E000BF60030020BE
:101DD000180300205CAD0008F8010020B0030020CB
:101DE00000007A446CAD000840020020E8030020A7
:101DF00020040020880200202C040020D0020020B3
:101E00003C040020CDCCCC3D00000000AC03002001
:101E1000A8030020A403002064030020F8AC0008FD
:101E2000FCAC0008A50300204E4B3C461D460FCDE0
:101E30000FC40FCD0FC495E8030020600434217057
:101E40003B461846FEF71CFA03469AB2394664230D
:101E5000454803F01DFA454B00221A70444B1B788D
:101E6000DBB2012B0CBF01230023DBB2002B41D0DE
:101E70004048FFF787FE0346002B0CBF01230023D9
:101E800087F88F303C48FFF77DFE0346002B0CBFE0
:101E90000123002387F88E300F213848FFF7F4FB29
:101EA000034687F88D3097F88F30002B22D097F8B3
:101EB0008E30002B1ED097F88D30002B1AD0304A70
:101EC00007F1640392E803001860043319800233B9
:101ED0000A0C1A7007F164031846FEF7D1F903469D
:101EE0009AB207F1640164231F4803F0D1F9204B33
:101EF00000221A7000F0F2FF0246224B1B68D31A30
:101F000040F2CF7293428CBF01230023DBB2002B3F
:101F100024D0174B1B78DBB2002B14BF0123002306
:101F2000DBB2002B05D03B461749184606F04CF8AB
:101F300004E03B461549184606F046F83B4618466D
:101F4000FEF79EF903469AB239466423064803F029
:101F50009FF900F0C3FF03460A4A1360052000F012
:101F6000C9FF9AE67CAD000818030020A4030020F6
:101F7000A5030020B0030020E80300203C0400205B
:101F8000A4AD0008AC03002020AD000840AD00085F
:101F900080B582B000AF78607B681B68174A9342B7
:101FA00028D100F09BFF0346154A1360154B1B78A0
:101FB000002B03D1144B1B78202B16D0114B1B7810
:101FC0003E2B12D8104B1B780A2B0ED00E4B1B78D1
:101FD0000D2B0AD00B4B1B785A1CD1B2094A117039
:101FE0001A46094B1978094B9954012206490848A9
:101FF00003F0D9F900BF0837BD4680BD001001408D
:10200000A8030020A4030020600300206403002034
:102010001803002080B582B000AF78607B681B6831
:10202000094A934203D10948FFF788FD07E07B681E
:102030001B68B3F1804F02D10548FFF77FFD00BF59
:102040000837BD4680BD00BF00000140B00300203E
:10205000E803002080B582B000AF78607B681B6821
:10206000094A934203D10948FFF768FD07E07B68FE
:102070001B68B3F1804F02D10548FFF75FFD00BF39
:102080000837BD4680BD00BF00000140B0030020FE
:10209000E803002080B594B000AF07F120033022A0
:1020A0000021184605F0F3FF07F10C0300221A6027
:1020B0005A609A60DA601A610023BB60274B1B6C80
:1020C000264A43F080531364244B1B6C03F0805367
:1020D000BB60BB6800237B60214B1B68204A43F434
:1020E000404313601E4B1B6803F440437B607B68D6
:1020F00002233B620123FB6210233B630023BB638B
:1021000007F12003184601F05BFA0346002B14BFC9
:1021100001230023DBB2002B01D000F0D5FA0F23FE
:10212000FB6000233B6100237B610023BB61002334
:10213000FB6107F10C030021184601F0B9FC0346CE
:10214000002B14BF01230023DBB2002B01D000F0D1
:10215000BBFA00BF5037BD4680BD00BF003802400B
:102160000070004080B596B000AF07F14803002230
:102170001A605A609A60DA6007F1400300221A6020
:102180005A6007F1240300221A605A609A60DA60EC
:102190001A615A619A613B1D20220021184605F000
:1021A00076FF4E4B4E4A1A604C4B00225A604B4B06
:1021B00000229A60494B40F23F62DA60474B0022AE
:1021C0001A61464B00225A61444B00229A614348EF
:1021D00001F04EFE0346002B14BF01230023DBB2A7
:1021E000002B01D000F070FA4FF48053BB6407F16C
:1021F00048031946394802F06FFB0346002B14BF11
:1022000001230023DBB2002B01D000F05DFA33483C
:1022100001F00FFF0346002B14BF01230023DBB2A4
:10222000002B01D000F050FA00233B6400237B64B4
:1022300007F140031946294802F006FF0346002B28
:1022400014BF01230023DBB2002B01D000F03CFAC5
:1022500060237B6240F21F33BB620023FB620023DA
:102260003B6300237B630023BB630023FB6307F115
:10227000240300221946194802F06CFA0346002B89
:1022800014BF01230023DBB2002B01D000F01CFAA5
:1022900000237B600023BB600023FB6000233B61C5
:1022A00000237B614FF40053BB6100233B623B1D65
:1022B00019460A4802F036FF0346002B14BF0123DB
:1022C0000023DBB2002B01D000F0FEF9034800F040
:1022D00049FB00BF5837BD4680BD00BFF801002054
:1022E0000000014080B58EB000AF07F12803002246
:1022F0001A605A609A60DA6007F1200300221A60BF
:102300005A603B1D00221A605A609A60DA601A61B6
:102310005A619A613A4B4FF080421A60384B002262
:102320005A60374B00229A60354B40F21F32DA6018
:10233000334B00221A61324B00229A61304801F07F
:1023400097FD0346002B14BF01230023DBB2002BB3
:1023500001D000F0B9F94FF48053BB6207F12803B4
:102360001946274802F0B8FA0346002B14BF012390
:102370000023DBB2002B01D000F0A6F9204801F0C9
:1023800058FE0346002B14BF01230023DBB2002BB1
:1023900001D000F099F900233B6200237B6207F132
:1023A00020031946164802F04FFE0346002B14BFC7
:1023B00001230023DBB2002B01D000F085F960235C
:1023C0007B6040F28F13BB600023FB6000237B61C6
:1023D0003B1D002219460A4802F0BCF90346002BB7
:1023E00014BF01230023DBB2002B01D000F06CF9F5
:1023F000034800F0B7FA00BF3837BD4680BD00BFC4
:102400004002002080B58CB000AF07F10C032422FD
:102410000021184605F03BFE3B1D00221A605A6061
:10242000254B264A1A60244B00225A60224B002278
:102430009A60214B4FF6FF72DA601F4B00221A613F
:102440001D4B00229A610123FB6000233B610123A5
:102450007B610023BB610023FB6100233B620123FE
:102460007B620023BB620023FB6207F10C03194669
:10247000114801F04BFF0346002B14BF012300233A
:10248000DBB2002B01D000F01FF900237B6000239A
:10249000BB603B1D1946084802F0D6FD0346002BE1
:1024A00014BF01230023DBB2002B01D000F00CF994
:1024B00000BF3037BD4680BD8802002000080040C4
:1024C00080B58EB000AF07F1280300221A605A6071
:1024D0009A60DA6007F1200300221A605A603B1DFF
:1024E00000221A605A609A60DA601A615A619A6131
:1024F000414B424A1A60404B00225A603E4B002238
:102500009A603D4B41F28732DA603B4B00221A6100
:10251000394B00229A61384801F0AAFC0346002B8F
:1025200014BF01230023DBB2002B01D000F0CCF854
:102530004FF48053BB6207F1280319462E4802F07E
:10254000CBF90346002B14BF01230023DBB2002B81
:1025500001D000F0B9F8284801F06BFD0346002BCC
:1025600014BF01230023DBB2002B01D000F0ACF834
:1025700000233B6200237B6207F1200319461E48BB
:1025800002F062FD0346002B14BF01230023DBB2DF
:10259000002B01D000F098F860237B600023BB6023
:1025A0000023FB6000237B613B1D0022194612487B
:1025B00002F0D0F80346002B14BF01230023DBB246
:1025C000002B01D000F080F83B1D042219460A4878
:1025D00002F0C0F80346002B14BF01230023DBB236
:1025E000002B01D000F070F8034800F0BBF900BFE9
:1025F0003837BD4680BD00BFD0020020000C00402F
:1026000080B500AF134B144A1A60124B4FF41652A8
:102610005A60104B00229A600E4B0022DA600D4B7C
:1026200000221A610B4B0C225A610A4B00229A615C
:10263000084B0022DA61074802F0DAFD0346002B5E
:1026400014BF01230023DBB2002B01D000F03CF8C3
:1026500000BF80BD180300200010014080B485B089
:1026600000AF0023FB60174B1B6B164A43F00403BB
:102670001363144B1B6B03F00403FB60FB68002324
:10268000BB60104B1B6B0F4A43F0010313630D4BF0
:102690001B6B03F00103BB60BB6800237B60094B2D
:1026A0001B6B084A43F002031363064B1B6B03F0DA
:1026B00002037B607B6800BF1437BD465DF8047B76
:1026C000704700BF0038024080B400AF72B600BF50
:1026D00000BFFDE790B58FB004AF786039607B68CC
:1026E000012B2FD13B684FF6FF7293422AD1174B33
:1026F00007F108040FCB84E80F006C4607F10C03C8
:1027000093E8070084E80700BB68002210491148DD
:10271000FEF7D2FF104B07F118040FCB84E80F002F
:102720006C4607F11C0393E8070084E80700BB69C7
:1027300000220A490A48FEF7BFFF0A4A0A490B4825
:10274000FEF766FC00BF2C37BD4690BD5CAD0008AF
:10275000F8010020B00300206CAD0008400200200A
:10276000E80300202C040020200400203C0400206A
:1027700080B500AF4FF6FF710120FFF7ABFF80BDC2
:1027800080B483B000AF00237B60104B5B6C0F4ABA
:1027900043F4804353640D4B5B6C03F480437B60D4
:1027A0007B6800233B60094B1B6C084A43F0805355
:1027B0001364064B1B6C03F080533B603B6800BF07
:1027C0000C37BD465DF8047B704700BF00380240FF
:1027D00080B586B000AF78607B681B68364A93424C
:1027E0002ED100237B61354B5B6C344A43F00103EF
:1027F0005364324B5B6C03F001037B617B69002205
:102800000021182000F075FC182000F08EFC00223A
:102810000021192000F06DFC192000F086FC002238
:1028200000211A2000F065FC1A2000F07EFC002236
:1028300000211B2000F05DFC1B2000F076FC36E040
:102840007B681B68B3F1804F16D100233B611B4BA3
:102850001B6C1A4A43F001031364184B1B6C03F002
:1028600001033B613B69002200211C2000F041FC78
:102870001C2000F05AFC1AE07B681B68104A934247
:1028800015D10023FB600D4B1B6C0C4A43F0080371
:1028900013640A4B1B6C03F00803FB60FB68002207
:1028A0000021322000F025FC322000F03EFC00BF69
:1028B0001837BD4680BD00BF00000140003802400F
:1028C000000C004080B58AB000AF786007F11403B7
:1028D00000221A605A609A60DA601A617B681B688D
:1028E0001D4A934233D100233B611C4B1B6C1B4A96
:1028F00043F004031364194B1B6C03F004033B61A6
:102900003B690023FB60154B1B6B144A43F0020329
:102910001363124B1B6B03F00203FB60FB68C023C5
:102920007B610223BB610023FB6100233B62022326
:102930007B6207F114031946094800F0A3FC00224A
:1029400000211E2000F0D5FB1E2000F0EEFB00BF92
:102950002837BD4680BD00BF000800400038024057
:102960000004024080B58AB000AF786007F114031C
:1029700000221A605A609A60DA601A617B681B68EC
:10298000364A93421FD100233B61354B1B6B344ABF
:1029900043F001031363324B1B6B03F001033B61F4
:1029A0003B694FF480737B610223BB610023FB61B1
:1029B00000233B6201237B6207F114031946294877
:1029C00000F060FC46E07B681B68B3F1804F1ED1CD
:1029D0000023FB60224B1B6B214A43F0010313636E
:1029E0001F4B1B6B03F00103FB60FB6820237B6123
:1029F0000223BB610023FB6100233B6201237B6256
:102A000007F114031946174800F03CFC22E07B68EC
:102A10001B68154A93421DD10023BB60104B1B6BF2
:102A20000F4A43F0010313630D4B1B6B03F00103CB
:102A3000BB60BB6803237B610223BB610023FB6196
:102A400000233B6202237B6207F114031946054809
:102A500000F018FC00BF2837BD4680BD00000140D3
:102A60000038024000000240000C004080B58AB0EF
:102A700000AF786007F1140300221A605A609A6070
:102A8000DA601A617B681B681D4A934234D10023C7
:102A90003B611C4B5B6C1B4A43F010035364194BA6
:102AA0005B6C03F010033B613B690023FB60154B3B
:102AB0001B6B144A43F001031363124B1B6B03F0AF
:102AC0000103FB60FB684FF4C0637B610223BB61C1
:102AD0000023FB6103233B6207237B6207F114039E
:102AE0001946094800F0CEFB00220021252000F005
:102AF00000FB252000F019FB00BF2837BD4680BD34
:102B000000100140003802400000024080B400AFD5
:102B100000BFFDE780B400AF00BFFDE780B400AFA9
:102B200000BFFDE780B400AF00BFFDE780B400AF99
:102B300000BFFDE780B400AF00BFBD465DF8047B79
:102B4000704780B400AF00BFBD465DF8047B70479E
:102B500080B400AF00BFBD465DF8047B704780B510
:102B600000AF00F0A7F900BF80BD000080B500AF46
:102B7000024801F0FFFC00BF80BD00BFF80100204B
:102B800080B500AF024801F0F5FC00BF80BD00BF7A
:102B9000F801002080B500AF024801F0EBFC00BF57
:102BA00080BD00BFF801002080B500AF024801F0F1
:102BB000E1FC00BF80BD00BFF801002080B500AF80
:102BC000024801F0D7FC00BF80BD00BF40020020DA
:102BD00080B500AF024801F0CDFC00BF80BD00BF52
:102BE0008802002080B500AF024802F001FC00BF5F
:102BF00080BD00BF1803002080B500AF024801F07F
:102C0000B9FC00BF80BD00BFD002002080B400AF7F
:102C100001231846BD465DF8047B704780B582B03D
:102C200000AF7860396005F0F3FA034616221A60A7
:102C30004FF0FF3318460837BD4680BD80B582B0DF
:102C400000AF78604FF0FF317868FFF7E7FF00BF13
:102C5000FDE780B586B000AFF860B9607A60002308
:102C60007B610AE0AFF300800146BB685A1CBA6082
:102C7000CAB21A707B6901337B617A697B689A42B8
:102C8000F0DB7B6818461837BD4680BD80B586B03E
:102C900000AFF860B9607A6000237B6109E0BB682F
:102CA0005A1CBA601B781846AFF300807B69013369
:102CB0007B617A697B689A42F1DB7B68184618373A
:102CC000BD4680BD80B483B000AF78604FF0FF3365
:102CD00018460C37BD465DF8047B704780B483B05E
:102CE00000AF786039603B684FF400525A600023AF
:102CF00018460C37BD465DF8047B704780B483B03E
:102D000000AF7860012318460C37BD465DF8047BA0
:102D1000704780B485B000AFF860B9607A60002376
:102D200018461437BD465DF8047B704780B586B001
:102D300000AF7860144A154BD31A7B617B693B6105
:102D4000134B1B68002B02D1114B124A1A60104B17
:102D50001A687B6813443A699A4207D205F058FA18
:102D600003460C221A604FF0FF3309E0084B1B6842
:102D7000FB60074B1A687B681344054A1360FB68C5
:102D800018461837BD4680BD000002200004000030
:102D90006C040020C005002080B400AF064BD3F8BF
:102DA0008830054A43F47003C2F8883000BFBD463E
:102DB0005DF8047B704700BF00ED00E0DFF834D021
:102DC000FFF7EAFF0C480D490D4A002302E0D458F2
:102DD000C4500433C4188C42F9D30A4A0A4C002365
:102DE00001E013600432A242FBD305F017FAFEF7AC
:102DF000D9FE70470000022000000020D40100200E
:102E000078B20008D4010020C0050020FEE70000D1
:102E100080B500AF0E4B1B680D4A43F4007313607E
:102E20000B4B1B680A4A43F480631360084B1B6812
:102E3000074A43F480731360032000F04FF90F201A
:102E400000F008F8FFF79CFC0023184680BD00BF87
:102E5000003C024080B582B000AF7860124B1A6827
:102E6000124B1B7819464FF47A73B3FBF1F3B2FBA4
:102E7000F3F3184600F067F90346002B01D0012355
:102E80000EE07B680F2B0AD8002279684FF0FF30E4
:102E900000F02FF9064A7B681360002300E001234D
:102EA00018460837BD4680BD0000002008000020FD
:102EB0000400002080B400AF064B1B781A46064B76
:102EC0001B681344044A136000BFBD465DF8047BD1
:102ED000704700BF080000207004002080B400AFDD
:102EE000034B1B681846BD465DF8047B704700BF66
:102EF0007004002080B584B000AF7860FFF7EEFF6B
:102F0000B8607B68FB60FB68B3F1FF3F05D00A4BFC
:102F10001B781A46FB681344FB6000BFFFF7DEFF17
:102F20000246BB68D31AFA689A42F7D800BF00BFBE
:102F30001037BD4680BD00BF0800002080B485B0BA
:102F400000AF78607B6803F00703FB600C4BDB6825
:102F5000BB60BA684FF6FF031340BB60FB681A0200
:102F6000BB68134343F0BF6343F40033BB60044AC0
:102F7000BB68D36000BF1437BD465DF8047B704763
:102F800000ED00E080B400AF044BDB681B0A03F0E7
:102F900007031846BD465DF8047B704700ED00E06E
:102FA00080B483B000AF0346FB7197F90730002B64
:102FB0000BDBFB7903F01F02074997F907305B0928
:102FC000012000FA02F241F8232000BF0C37BD4671
:102FD0005DF8047B704700BF00E100E080B483B07F
:102FE00000AF03463960FB7197F90730002B0ADB0D
:102FF0003B68DAB20C4997F907301201D2B20B44A0
:1030000083F800230AE03B68DAB20849FB7903F051
:103010000F03043B1201D2B20B441A7600BF0C37E7
:10302000BD465DF8047B704700E100E000ED00E084
:1030300080B489B000AFF860B9607A60FB6803F0D3
:103040000703FB61FB69C3F10703042B28BF0423BB
:10305000BB61FB690433062B02D9FB69033B00E02B
:1030600000237B614FF0FF32BB6902FA03F3DA43BE
:10307000BB681A407B699A404FF0FF317B6901FAC7
:1030800003F3D9437B680B40134318462437BD46EE
:103090005DF8047B7047000080B582B000AF7860B7
:1030A0007B68013BB3F1807F01D301230FE00A4A23
:1030B0007B68013B53600F214FF0FF30FFF78EFF1D
:1030C000054B00229A60044B07221A600023184621
:1030D0000837BD4680BD00BF10E000E080B582B07B
:1030E00000AF78607868FFF729FF00BF0837BD465A
:1030F00080BD80B586B000AF0346B9607A60FB73CF
:1031000000237B61FFF73EFF78617A68B9687869D0
:10311000FFF78EFF024697F90F3011461846FFF76A
:103120005DFF00BF1837BD4680BD80B582B000AFDF
:103130000346FB7197F907301846FFF731FF00BFD0
:103140000837BD4680BD80B582B000AF7860786832
:10315000FFF7A2FF034618460837BD4680BD80B57D
:1031600084B000AF78607B689B6DFB60FFF7B6FEB4
:10317000B8607B6893F83530DBB2022B08D07B68EF
:1031800080225A657B68002283F83420012352E0B4
:103190007B681B681A687B681B6822F016021A603D
:1031A0007B681B685A697B681B6822F080025A6141
:1031B0007B681B6C002B03D17B689B6C002B07D0BA
:1031C0007B681B681A687B681B6822F008021A601B
:1031D0007B681B681A687B681B6822F001021A6012
:1031E00013E0FFF77BFE0246BB68D31A052B0CD910
:1031F0007B6820225A657B68032283F835207B6830
:10320000002283F83420032315E07B681B681B68C9
:1032100003F00103002BE4D17B68DB6D3F229A4071
:10322000FB689A607B68012283F835207B68002266
:1032300083F83420002318461037BD4680BD80B483
:1032400083B000AF78607B6893F83530DBB2022B37
:1032500004D07B6880225A6501230CE07B6805223C
:1032600083F835207B681B681A687B681B6822F02E
:1032700001021A60002318460C37BD465DF8047B36
:103280007047000080B489B000AF786039600023D7
:103290007B6100233B610023BB610023FB6159E19B
:1032A0000122FB6902FA03F37B613B681B687A69C0
:1032B00013403B613A697B699A4240F048813B6820
:1032C0005B6803F00303012B05D03B685B6803F0E8
:1032D0000303022B30D17B689B68BB61FB695B00F9
:1032E000032202FA03F3DB43BA691340BB613B6874
:1032F000DA68FB695B0002FA03F3BA691343BB6146
:103300007B68BA699A607B685B68BB610122FB6974
:1033100002FA03F3DB43BA691340BB613B685B68A5
:103320001B0903F00102FB6902FA03F3BA691343B4
:10333000BB617B68BA695A603B685B6803F0030352
:10334000032B17D07B68DB68BB61FB695B00032242
:1033500002FA03F3DB43BA691340BB613B689A6826
:10336000FB695B0002FA03F3BA691343BB617B6834
:10337000BA69DA603B685B6803F00303022B23D170
:10338000FB69DA087B68083253F82230BB61FB69BD
:1033900003F007039B000F2202FA03F3DB43BA6931
:1033A0001340BB613B681A69FB6903F007039B008C
:1033B00002FA03F3BA691343BB61FB69DA087B685D
:1033C0000832B96943F822107B681B68BB61FB694E
:1033D0005B00032202FA03F3DB43BA691340BB61CB
:1033E0003B685B6803F00302FB695B0002FA03F3CE
:1033F000BA691343BB617B68BA691A603B685B6852
:1034000003F44033002B00F0A2800023FB60574BF5
:103410005B6C564A43F480435364544B5B6C03F437
:103420008043FB60FB68524AFB699B08023352F8F9
:103430002330BB61FB6903F003039B000F2202FAF8
:1034400003F3DB43BA691340BB617B68494A93428B
:1034500019D07B68484A934213D07B68474A93420D
:103460000DD07B68464A934207D07B68454A934219
:1034700001D1042308E0072306E0032304E002232C
:1034800002E0012300E00023FA6902F00302920047
:103490009340BA691343BB613549FB699B0802330A
:1034A000BA6941F82320384B9B68BB613B69DB4319
:1034B000BA691340BB613B685B6803F48013002B5F
:1034C00003D0BA693B691343BB612F4ABB69936060
:1034D0002D4BDB68BB613B69DB43BA691340BB61C1
:1034E0003B685B6803F40013002B03D0BA693B69A7
:1034F0001343BB61244ABB69D360234B5B68BB6148
:103500003B69DB43BA691340BB613B685B6803F40A
:103510000033002B03D0BA693B691343BB611A4ADD
:10352000BB695360184B1B68BB613B69DB43BA69DD
:103530001340BB613B685B6803F48033002B03D00E
:10354000BA693B691343BB610F4ABB691360FB69EE
:103550000133FB61FB690F2B7FF6A2AE00BF00BFFA
:103560002437BD465DF8047B704700BF0038024039
:103570000038014000000240000402400008024000
:10358000000C024000100240003C014080B483B0B7
:1035900000AF78600B467B8013467B707B78002BF6
:1035A00003D07A887B689A6103E07B881A047B6881
:1035B0009A6100BF0C37BD465DF8047B7047000080
:1035C00080B586B000AF78607B68002B01D1012305
:1035D00067E27B681B6803F00103002B75D0884B02
:1035E0009B6803F00C03042B0CD0854B9B6803F005
:1035F0000C03082B12D1824B5B6803F48003B3F5F4
:10360000800F0BD17E4B1B6803F40033002B5BD083
:103610007B685B68002B57D1012342E27B685B68C3
:10362000B3F5803F06D1764B1B68754A43F480336F
:1036300013601DE07B685B68B3F5A02F0CD1704B65
:103640001B686F4A43F4802313606D4B1B686C4A00
:1036500043F4803313600BE0694B1B68684A23F422
:1036600080331360664B1B68654A23F48023136024
:103670007B685B68002B13D0FFF730FC386108E0F3
:10368000FFF72CFC02463B69D31A642B01D90323B4
:1036900007E25B4B1B6803F40033002BF0D014E00F
:1036A000FFF71CFC386108E0FFF718FC02463B6995
:1036B000D31A642B01D90323F3E1514B1B6803F4A4
:1036C0000033002BF0D100E000BF7B681B6803F0E3
:1036D0000203002B63D04A4B9B6803F00C03002BC2
:1036E0000BD0474B9B6803F00C03082B1CD1444BB9
:1036F0005B6803F48003002B16D1414B1B6803F079
:103700000203002B05D07B68DB68012B01D001236D
:10371000C7E13B4B1B6823F0F8027B681B69DB00A9
:10372000374913430B603AE07B68DB68002B20D0FD
:10373000344B01221A60FFF7D1FB386108E0FFF734
:10374000CDFB02463B69D31A022B01D90323A8E122
:103750002B4B1B6803F00203002BF0D0284B1B6897
:1037600023F0F8027B681B69DB00254913430B60DB
:1037700015E0244B00221A60FFF7B0FB386108E027
:10378000FFF7ACFB02463B69D31A022B01D9032396
:1037900087E11B4B1B6803F00203002BF0D17B6811
:1037A0001B6803F00803002B36D07B685B69002B95
:1037B00016D0154B01221A60FFF790FB386108E024
:1037C000FFF78CFB02463B69D31A022B01D9032376
:1037D00067E10B4B5B6F03F00203002BF0D01BE0A3
:1037E000094B00221A60FFF779FB38610EE0FFF702
:1037F00075FB02463B69D31A022B07D9032350E11C
:103800000038024000004742800E4742884B5B6F01
:1038100003F00203002BEAD17B681B6803F004036A
:10382000002B00F097800023FB75814B1B6C03F08D
:103830008053002B0FD10023BB607D4B1B6C7C4A57
:1038400043F0805313647A4B1B6C03F08053BB60CE
:10385000BB680123FB75774B1B6803F48073002B57
:1038600018D1744B1B68734A43F480731360FFF7DD
:1038700035FB386108E0FFF731FB02463B69D31A9C
:10388000022B01D903230CE16A4B1B6803F48073FC
:10389000002BF0D07B689B68012B06D1644B1B6F1B
:1038A000634A43F0010313671CE07B689B68052BA8
:1038B0000CD15F4B1B6F5E4A43F0040313675C4BF4
:1038C0001B6F5B4A43F0010313670BE0584B1B6F00
:1038D000574A23F001031367554B1B6F544A23F0DB
:1038E000040313677B689B68002B15D0FFF7F6FA7B
:1038F00038610AE0FFF7F2FA02463B69D31A41F257
:103900008832934201D90323CBE0494B1B6F03F06C
:103910000203002BEED014E0FFF7E0FA38610AE072
:10392000FFF7DCFA02463B69D31A41F28832934230
:1039300001D90323B5E03E4B1B6F03F00203002BBC
:10394000EED1FB7D012B05D1394B1B6C384A23F09E
:10395000805313647B689B69002B00F0A180344B7B
:103960009B6803F00C03082B5CD07B689B69022BDF
:1039700041D1314B00221A60FFF7B0FA386108E0FC
:10398000FFF7ACFA02463B69D31A022B01D9032395
:1039900087E0274B1B6803F00073002BF0D17B6896
:1039A000DA697B681B6A1A437B685B6A9B011A436E
:1039B0007B689B6A5B08013B1B041A437B68DB6ADC
:1039C0001B061B4913434B601B4B01221A60FFF778
:1039D00085FA386108E0FFF781FA02463B69D31A9D
:1039E000022B01D903235CE0114B1B6803F0007329
:1039F000002BF0D054E0104B00221A60FFF76EFA53
:103A0000386108E0FFF76AFA02463B69D31A022BD5
:103A100001D9032345E0064B1B6803F00073002B1C
:103A2000F0D13DE07B689B69012B07D1012338E091
:103A30000038024000700040600047421B4B5B684A
:103A4000FB607B689B69012B28D0FB6803F4800234
:103A50007B68DB699A4221D1FB6803F03F027B68F7
:103A60001B6A9A421AD1FA6847F6C07313407A6803
:103A7000526A9201934211D1FB6803F440327B6891
:103A80009B6A5B08013B1B049A4207D1FB6803F069
:103A900070627B68DB6A1B069A4201D0012300E05A
:103AA000002318461837BD4680BD00BF00380240CD
:103AB00080B584B000AF786039607B68002B01D19D
:103AC0000123CCE0684B1B6803F007033A689A4275
:103AD0000CD9654B3A68D2B21A70634B1B6803F07D
:103AE00007033A689A4201D00123B8E07B681B685B
:103AF00003F00203002B20D07B681B6803F0040353
:103B0000002B05D0594B9B68584A43F4E05393600F
:103B10007B681B6803F00803002B05D0534B9B68A0
:103B2000524A43F460439360504B9B6823F0F00289
:103B30007B689B684D4913438B607B681B6803F06F
:103B40000103002B44D07B685B68012B07D1474BF6
:103B50001B6803F40033002B19D101237FE07B683D
:103B60005B68022B03D07B685B68032B07D13F4B5C
:103B70001B6803F00073002B09D101236FE03B4B5E
:103B80001B6803F00203002B01D1012367E0374BD0
:103B90009B6823F003027B685B68344913438B60A6
:103BA000FFF79CF9F8600AE0FFF798F90246FB6816
:103BB000D31A41F28832934201D903234FE02B4BB1
:103BC0009B6803F00C027B685B689B009A42EBD118
:103BD000254B1B6803F007033A689A420CD2224B2C
:103BE0003A68D2B21A70204B1B6803F007033A6898
:103BF0009A4201D0012332E07B681B6803F0040382
:103C0000002B08D0194B9B6823F4E0527B68DB68DB
:103C1000164913438B607B681B6803F00803002B75
:103C200009D0124B9B6823F460427B681B69DB0060
:103C30000E4913438B6000F021F802460B4B9B6842
:103C40001B0903F00F030A49CB5C22FA03F3094A6C
:103C50001360094B1B681846FFF7FCF80023184651
:103C60001037BD4680BD00BF003C02400038024016
:103C7000ACAD000800000020040000202DE9B04F8A
:103C800090B000AF00237B630023FB6300233B6302
:103C90000023BB63594B9B6803F00C03082B0DD02A
:103CA000082B00F2A180002B02D0042B03D09BE054
:103CB000534BBB639BE0534BBB6398E04F4B5B683C
:103CC00003F03F037B634D4B5B6803F48003002BE1
:103CD00028D04A4B5B689B0900223B627A623B6AB0
:103CE000C3F308000021474B03FB01F2002300FB54
:103CF00003F31344434AA0FB0212FA620A46BA6273
:103D0000FA6A1344FB627B6B0022BB61FA61D7E95C
:103D10000623D7E90A01FCF7BFFF02460B4613460C
:103D2000FB6353E0354B5B689B0900223B617A6182
:103D30003B69C3F3080A4FF0000B52465B464FF055
:103D400000004FF00001590141EAD26150010246E2
:103D50000B46B2EB0A0863EB0B094FF000024FF081
:103D600000034FEA891343EA98634FEA8812B2EBE3
:103D7000080463EB09054FF000024FF00003EB006D
:103D800043EA5473E20014461D4614EB0A033B60F9
:103D900045EB0B037B604FF000024FF00003D7E9C7
:103DA000004529468B02214643EA915321468A0267
:103DB000104619467B6B0022BB60FA60D7E90223EC
:103DC000FCF76AFF02460B461346FB630B4B5B682E
:103DD0001B0C03F0030301335B003B63FA6B3B6B8B
:103DE000B2FBF3F3BB6302E0054BBB6300BFBB6BED
:103DF00018464037BD46BDE8B08F00BF00380240CE
:103E00000024F40040787D0180B400AF034B1B68B0
:103E10001846BD465DF8047B704700BF00000020D7
:103E200080B500AFFFF7F0FF0246054B9B689B0A89
:103E300003F007030349CB5C22FA03F3184680BD65
:103E400000380240BCAD000880B500AFFFF7DCFFD2
:103E50000246054B9B685B0B03F007030349CB5CF1
:103E600022FA03F3184680BD00380240BCAD0008BA
:103E700080B582B000AF78607B68002B01D1012350
:103E800041E07B6893F83D30DBB2002B06D17B68C4
:103E9000002283F83C207868FEF79AFC7B680222B7
:103EA00083F83D207B681A687B6804331946104606
:103EB00000F0F8FD7B68012283F846207B68012230
:103EC00083F83E207B68012283F83F207B68012233
:103ED00083F840207B68012283F841207B6801221F
:103EE00083F842207B68012283F843207B6801220B
:103EF00083F844207B68012283F845207B680122F7
:103F000083F83D20002318460837BD4680BD0000D9
:103F100080B485B000AF78607B6893F83D30DBB249
:103F2000012B01D0012344E07B68022283F83D206D
:103F30007B681B68DA687B681B6842F00102DA6004
:103F40007B681B681E4A934218D07B681B68B3F1DC
:103F5000804F13D07B681B681A4A93420ED07B684F
:103F60001B68194A934209D07B681B68174A934221
:103F700004D07B681B68164A934211D17B681B688A
:103F80009B6803F00703FB60FB68062B10D07B687F
:103F90001B681A687B681B6842F001021A6007E020
:103FA0007B681B681A687B681B6842F001021A6014
:103FB000002318461437BD465DF8047B704700BFE8
:103FC000000001400004004000080040000C0040D8
:103FD0000040014080B483B000AF78607B681B680C
:103FE000DA687B681B6822F00102DA607B681B6874
:103FF0001A6A41F211131340002B0FD17B681B6822
:104000001A6A40F244431340002B07D17B681B68B7
:104010001A687B681B6822F001021A607B68012223
:1040200083F83D20002318460C37BD465DF8047B1D
:10403000704780B582B000AF78607B68002B01D1FB
:10404000012341E07B6893F83D30DBB2002B06D1C1
:104050007B68002283F83C20786800F039F87B68A0
:10406000022283F83D207B681A687B680433194676
:10407000104600F017FD7B68012283F846207B681C
:10408000012283F83E207B68012283F83F207B6871
:10409000012283F840207B68012283F841207B685D
:1040A000012283F842207B68012283F843207B6849
:1040B000012283F844207B68012283F845207B6835
:1040C000012283F83D20002318460837BD4680BDF5
:1040D00080B483B000AF786000BF0C37BD465DF898
:1040E000047B704780B584B000AF786039603B686E
:1040F000002B09D17B6893F83E30DBB2012B14BF53
:1041000001230023DBB222E03B68042B09D17B684A
:1041100093F83F30DBB2012B14BF01230023DBB245
:1041200015E03B68082B09D17B6893F84030DBB27F
:10413000012B14BF01230023DBB208E07B6893F856
:104140004130DBB2012B14BF01230023DBB2002B73
:1041500001D0012368E03B68002B04D17B68022278
:1041600083F83E2013E03B68042B04D17B680222D5
:1041700083F83F200BE03B68082B04D17B680222C8
:1041800083F8402003E07B68022283F841207B68AB
:104190001B6801223968184600F030FF7B681B68F5
:1041A000234A934207D17B681B685A6C7B681B6863
:1041B00042F400425A647B681B681D4A934218D03F
:1041C0007B681B68B3F1804F13D07B681B68194A6A
:1041D00093420ED07B681B68174A934209D07B68D4
:1041E0001B68164A934204D07B681B68144A9342AA
:1041F00011D17B681B689B6803F00703FB60FB68B9
:10420000062B10D07B681B681A687B681B6842F01D
:1042100001021A6007E07B681B681A687B681B68EC
:1042200042F001021A60002318461037BD4680BDD7
:10423000000001400004004000080040000C004065
:104240000040014080B582B000AF786039607B6883
:104250001B6800223968184600F0D0FE7B681B6896
:10426000294A934217D17B681B681A6A41F21113DD
:104270001340002B0FD17B681B681A6A40F244433D
:104280001340002B07D17B681B685A6C7B681B6846
:1042900022F400425A647B681B681A6A41F21113C7
:1042A0001340002B0FD17B681B681A6A40F244430D
:1042B0001340002B07D17B681B681A687B681B685A
:1042C00022F001021A603B68002B04D17B680122B6
:1042D00083F83E2013E03B68042B04D17B68012265
:1042E00083F83F200BE03B68082B04D17B68012258
:1042F00083F8402003E07B68012283F841200023FB
:1043000018460837BD4680BD0000014080B586B024
:1043100000AF786039607B68002B01D1012397E002
:104320007B6893F83D30DBB2002B06D17B6800221E
:1043300083F83C207868FEF7C5FA7B68022283F890
:104340003D207B681B689B687A68126823F4804371
:1043500023F0070393607B681A687B68043319466F
:10436000104600F09FFB7B681B689B687B617B6845
:104370001B689B693B617B681B681B6AFB603B6831
:104380001B687A6913437B613B6923F4407323F014
:1043900003033B613B689A683B689B691B021343BC
:1043A0003A6913433B613B6923F4406323F00C03F8
:1043B0003B613B6923F4704323F0F0033B613B68AE
:1043C000DA683B68DB691B0213433A6913433B61BC
:1043D0003B681B691A013B681B6A1B0313433A695C
:1043E00013433B61FB6823F02203FB60FB6823F06F
:1043F0008803FB603B685A683B685B691B01134399
:10440000FA681343FB607B681B687A699A607B6873
:104410001B683A699A617B681B68FA681A627B6854
:10442000012283F846207B68012283F83E207B68C6
:10443000012283F83F207B68012283F842207B68B9
:10444000012283F843207B68012283F83D2000236A
:1044500018461837BD4680BD80B584B000AF78607F
:1044600039607B6893F83E30FB737B6893F83F308C
:10447000BB737B6893F842307B737B6893F843305F
:104480003B733B68002B10D1FB7B012B02D17B7B64
:10449000012B01D0012369E07B68022283F83E20D2
:1044A0007B68022283F8422031E03B68042B10D164
:1044B000BB7B012B02D13B7B012B01D0012355E0BB
:1044C0007B68022283F83F207B68022283F8432026
:1044D0001DE0FB7B012B08D1BB7B012B05D17B7B36
:1044E000012B02D13B7B012B01D001233EE07B68F5
:1044F000022283F83E207B68022283F83F207B68FB
:10450000022283F842207B68022283F843203B6822
:10451000002B03D03B68042B08D00FE07B681B689E
:1045200001220021184600F069FD16E07B681B6837
:1045300001220421184600F061FD0EE07B681B6833
:1045400001220021184600F059FD7B681B680122FA
:104550000421184600F052FD00BF7B681B681A68F2
:104560007B681B6842F001021A600023184610376E
:10457000BD4680BD80B584B000AF78607B681B68A5
:10458000DB68FB607B681B681B69BB60BB6803F072
:104590000203002B20D0FB6803F00203002B1BD08A
:1045A0007B681B686FF002021A617B6801221A7730
:1045B0007B681B689B6903F00303002B03D07868BA
:1045C00000F05BFA05E0786800F04DFA7868FDF7D6
:1045D00021FD7B6800221A77BB6803F00403002BDF
:1045E00020D0FB6803F00403002B1BD07B681B6802
:1045F0006FF004021A617B6802221A777B681B68DD
:104600009B6903F44073002B03D0786800F035FAFF
:1046100005E0786800F027FA7868FDF7FBFC7B6816
:1046200000221A77BB6803F00803002B20D0FB6838
:1046300003F00803002B1BD07B681B686FF0080297
:104640001A617B6804221A777B681B68DB6903F0B8
:104650000303002B03D0786800F00FFA05E07868B8
:1046600000F001FA7868FDF7D5FC7B6800221A7724
:10467000BB6803F01003002B20D0FB6803F010038D
:10468000002B1BD07B681B686FF010021A617B68DF
:1046900008221A777B681B68DB6903F44073002BE0
:1046A00003D0786800F0E9F905E0786800F0DBF9FC
:1046B0007868FDF7AFFC7B6800221A77BB6803F0CF
:1046C0000103002B0CD0FB6803F00103002B07D083
:1046D0007B681B686FF001021A617868FDF7BAFC0D
:1046E000BB6803F08003002B0CD0FB6803F0800351
:1046F000002B07D07B681B686FF080021A61786816
:1047000000F06CFDBB6803F04003002B0CD0FB688D
:1047100003F04003002B07D07B681B686FF040025A
:104720001A61786800F0B3F9BB6803F02003002B2E
:104730000CD0FB6803F02003002B07D07B681B68BC
:104740006FF020021A61786800F03EFD00BF10375C
:10475000BD4680BD80B586B000AFF860B9607A60B4
:104760000023FB75FB6893F83C30012B01D1022339
:10477000AEE0FB68012283F83C207B680C2B00F242
:104780009F8001A252F823F0BD470008C1480008ED
:10479000C1480008C1480008FD470008C14800089A
:1047A000C1480008C14800083F480008C148000847
:1047B000C1480008C14800087F480008FB681B6822
:1047C000B968184600F0F4F9FB681B689A69FB6841
:1047D0001B6842F008029A61FB681B689A69FB68D3
:1047E0001B6822F004029A61FB681B689969BB6828
:1047F0001A69FB681B680A439A6164E0FB681B68DE
:10480000B968184600F03AFAFB681B689A69FB68B9
:104810001B6842F400629A61FB681B689A69FB6836
:104820001B6822F480629A61FB681B689969BB6807
:104830001B691A02FB681B680A439A6143E0FB6824
:104840001B68B968184600F085FAFB681B68DA69CE
:10485000FB681B6842F00802DA61FB681B68DA69D2
:10486000FB681B6822F00402DA61FB681B68D969E7
:10487000BB681A69FB681B680A43DA6123E0FB68BE
:104880001B68B968184600F0CFFAFB681B68DA6944
:10489000FB681B6842F40062DA61FB681B68DA6936
:1048A000FB681B6822F48062DA61FB681B68D969C7
:1048B000BB681B691A02FB681B680A43DA6102E0E5
:1048C0000123FB7500BFFB68002283F83C20FB7DC1
:1048D00018461837BD4680BD80B584B000AF7860FB
:1048E00039600023FB737B6893F83C30012B01D1C6
:1048F0000223B4E07B68012283F83C207B6802221B
:1049000083F83D207B681B689B68BB60BB6823F015
:104910007703BB60BB6823F47F43BB607B681B6885
:10492000BA689A603B681B68B3F5005F3ED0B3F588
:10493000005F00F28780B3F5805F00F08680B3F5FA
:10494000805F7FD8702B1AD0702B7BD8602B50D013
:10495000602B77D8502B3CD0502B73D8402B58D09D
:10496000402B6FD8302B64D0302B6BD8202B60D0ED
:10497000202B67D8002B5CD0102B5AD062E07B68CC
:1049800018683B6899683B685A683B68DB6800F0C8
:1049900015FB7B681B689B68BB60BB6843F07703B3
:1049A000BB607B681B68BA689A604FE07B681868D8
:1049B0003B6899683B685A683B68DB6800F0FEFA20
:1049C0007B681B689A687B681B6842F480429A6027
:1049D0003CE07B6818683B6859683B68DB681A46AE
:1049E00000F072FA7B681B685021184600F0CBFA81
:1049F0002CE07B6818683B6859683B68DB681A469E
:104A000000F091FA7B681B686021184600F0BBFA41
:104A10001CE07B6818683B6859683B68DB681A468D
:104A200000F052FA7B681B684021184600F0ABFA90
:104A30000CE07B681A683B681B681946104600F05A
:104A4000A2FA03E00123FB7300E000BF7B680122B0
:104A500083F83D207B68002283F83C20FB7B1846CE
:104A60001037BD4680BD80B483B000AF786000BF12
:104A70000C37BD465DF8047B704780B483B000AF4F
:104A8000786000BF0C37BD465DF8047B704780B48A
:104A900083B000AF786000BF0C37BD465DF8047B83
:104AA0007047000080B485B000AF786039607B68E3
:104AB0001B68FB607B68374A93420FD07B68B3F179
:104AC000804F0BD07B68344A934207D07B68334ACF
:104AD000934203D07B68324A934208D1FB6823F0AB
:104AE0007003FB603B685B68FA681343FB607B689C
:104AF000284A93421BD07B68B3F1804F17D07B6864
:104B0000254A934213D07B68244A93420FD07B6896
:104B1000234A93420BD07B68224A934207D07B689A
:104B2000214A934203D07B68204A934208D1FB6814
:104B300023F44073FB603B68DB68FA681343FB6057
:104B4000FB6823F080023B685B691343FB603B68B2
:104B50009A687B68DA623B681A687B689A627B684D
:104B60000C4A934203D13B681A697B681A637B68DD
:104B70001B6843F004027B681A607B6801225A615B
:104B80007B68FA681A6000BF1437BD465DF8047B85
:104B9000704700BF000001400004004000080040D2
:104BA000000C00400040014000440140004801402A
:104BB00080B487B000AF786039607B681B6A7B6126
:104BC0007B681B6A23F001027B681A627B685B6862
:104BD0003B617B689B69FB60FB6823F07003FB60B3
:104BE000FB6823F00303FB603B681B68FA68134310
:104BF000FB607B6923F002037B613B689B687A69F9
:104C000013437B617B681C4A93420CD17B6923F080
:104C100008037B613B68DB687A6913437B617B69CE
:104C200023F004037B617B68134A934211D13B69F3
:104C300023F480733B613B6923F400733B613B6861
:104C40005B693A6913433B613B689B693A6913436B
:104C50003B617B683A695A607B68FA689A613B6895
:104C60005A687B685A637B687A691A6200BF1C378E
:104C7000BD465DF8047B70470000014080B487B0FA
:104C800000AF786039607B681B6A7B617B681B6A58
:104C900023F010027B681A627B685B683B617B686B
:104CA0009B69FB60FB6823F4E043FB60FB6823F433
:104CB0004073FB603B681B681B02FA681343FB6090
:104CC0007B6923F020037B613B689B681B017A6949
:104CD00013437B617B681E4A93420DD17B6923F0AD
:104CE00080037B613B68DB681B017A6913437B614E
:104CF0007B6923F040037B617B68154A934213D1A3
:104D00003B6923F480633B613B6923F400633B61AF
:104D10003B685B699B003A6913433B613B689B6955
:104D20009B003A6913433B617B683A695A607B6830
:104D3000FA689A613B685A687B689A637B687A690B
:104D40001A6200BF1C37BD465DF8047B704700BF88
:104D50000000014080B487B000AF786039607B68A4
:104D60001B6A7B617B681B6A23F480727B681A6212
:104D70007B685B683B617B68DB69FB60FB6823F0F9
:104D80007003FB60FB6823F00303FB603B681B6858
:104D9000FA681343FB607B6923F400737B613B6813
:104DA0009B681B027A6913437B617B681D4A9342AF
:104DB0000DD17B6923F400637B613B68DB681B02D8
:104DC0007A6913437B617B6923F480637B617B6831
:104DD000144A934213D13B6923F480533B613B69EE
:104DE00023F400533B613B685B691B013A69134341
:104DF0003B613B689B691B013A6913433B617B68DC
:104E00003A695A607B68FA68DA613B685A687B687D
:104E1000DA637B687A691A6200BF1C37BD465DF8A9
:104E2000047B70470000014080B487B000AF786019
:104E300039607B681B6A3B617B681B6A23F4805284
:104E40007B681A627B685B687B617B68DB69FB60FF
:104E5000FB6823F4E043FB60FB6823F44073FB60D2
:104E60003B681B681B02FA681343FB603B6923F431
:104E700000533B613B689B681B033A6913433B61EA
:104E80007B68104A934209D17B6923F480437B619C
:104E90003B685B699B017A6913437B617B687A6934
:104EA0005A607B68FA68DA613B685A687B681A6402
:104EB0007B683A691A6200BF1C37BD465DF8047B07
:104EC000704700BF0000014080B487B000AFF860B9
:104ED000B9607A60FB681B6A7B61FB681B6A23F020
:104EE0000102FB681A62FB689B693B613B6923F026
:104EF000F0033B617B681B013A6913433B617B69AB
:104F000023F00A037B617A69BB6813437B61FB680A
:104F10003A699A61FB687A691A6200BF1C37BD461C
:104F20005DF8047B704780B487B000AFF860B9606B
:104F30007A60FB681B6A7B61FB681B6A23F01002C6
:104F4000FB681A62FB689B693B613B6923F4704311
:104F50003B617B681B033A6913433B617B6923F028
:104F6000A0037B61BB681B017A6913437B61FB680B
:104F70003A699A61FB687A691A6200BF1C37BD46BC
:104F80005DF8047B704780B485B000AF786039600D
:104F90007B689B68FB60FB6823F07003FB603A68EA
:104FA000FB68134343F00703FB607B68FA689A6071
:104FB00000BF1437BD465DF8047B704780B487B0EE
:104FC00000AFF860B9607A603B60FB689B687B610A
:104FD0007B6923F47F437B613B681A027B681A4339
:104FE000BB6813437A6913437B61FB687A699A60F3
:104FF00000BF1C37BD465DF8047B704780B487B0A6
:1050000000AFF860B9607A60BB6803F01F0301224B
:1050100002FA03F37B61FB681A6A7B69DB431A407F
:10502000FB681A62FB681A6ABB6803F01F037968A1
:1050300001FA03F31A43FB681A6200BF1C37BD462E
:105040005DF8047B7047000080B485B000AF7860E5
:1050500039607B6893F83C30012B01D1022350E08A
:105060007B68012283F83C207B68022283F83D2084
:105070007B681B685B68FB607B681B689B68BB6028
:10508000FB6823F07003FB603B681B68FA681343FE
:10509000FB607B681B68FA685A607B681B681C4A67
:1050A000934218D07B681B68B3F1804F13D07B68A4
:1050B0001B68184A93420ED07B681B68164A9342BD
:1050C00009D07B681B68154A934204D07B681B6833
:1050D000134A93420CD1BB6823F08003BB603B684A
:1050E0005B68BA681343BB607B681B68BA689A60E8
:1050F0007B68012283F83D207B68002283F83C20F6
:10510000002318461437BD465DF8047B704700BF86
:10511000000001400004004000080040000C004076
:105120000040014080B485B000AF78603960002352
:10513000FB607B6893F83C30012B01D102233DE0FA
:105140007B68012283F83C20FB6823F0FF023B6868
:10515000DB681343FB60FB6823F440723B689B6889
:105160001343FB60FB6823F480623B685B68134376
:10517000FB60FB6823F400623B681B681343FB6021
:10518000FB6823F480523B681B691343FB60FB6898
:1051900023F400523B685B691343FB60FB6823F414
:1051A00080423B68DB691343FB607B681B68FA68DD
:1051B0005A647B68002283F83C2000231846143789
:1051C000BD465DF8047B704780B483B000AF786063
:1051D00000BF0C37BD465DF8047B704780B483B0D8
:1051E00000AF786000BF0C37BD465DF8047B7047A8
:1051F00080B582B000AF78607B68002B01D10123BD
:1052000042E07B6893F84130DBB2002B06D17B682B
:10521000002283F840207868FDF728FC7B68242270
:1052200083F841207B681B68DA687B681B6822F47E
:105230000052DA60786800F0D3FD7B681B681A6959
:105240007B681B6822F490421A617B681B685A696C
:105250007B681B6822F02A025A617B681B68DA6847
:105260007B681B6842F40052DA607B6800225A6453
:105270007B68202283F841207B68202283F842202B
:105280007B6800225A63002318460837BD4680BD5C
:1052900080B58AB002AFF860B9603B601346FB800E
:1052A00000237B61FB6893F84130DBB2202B75D182
:1052B000BB68002B02D0FB88002B01D101236EE0DC
:1052C000FB6800225A64FB68212283F84120FDF725
:1052D00005FE7861FB68FA889A84FB68FA88DA84AC
:1052E000FB689B68B3F5805F08D1FB681B69002BE6
:1052F00004D10023FB61BB68BB6103E0BB68FB61B9
:105300000023BB612EE03B6800937B690022802173
:10531000F86800F037FB0346002B05D0FB6820221D
:1053200083F8412003233AE0FB69002B0BD1BB69D2
:105330001B881A46FB681B68C2F308025A60BB69E7
:105340000233BB6107E0FB691A78FB681B685A608F
:10535000FB690133FB61FB68DB8C9BB2013B9AB2BA
:10536000FB68DA84FB68DB8C9BB2002BCBD13B68FB
:1053700000937B6900224021F86800F003FB03469C
:10538000002B05D0FB68202283F84120032306E090
:10539000FB68202283F84120002300E00223184606
:1053A0002037BD4680BD80B584B000AFF860B960DD
:1053B0001346FB80FB6893F84230DBB2202B12D1FE
:1053C000BB68002B02D0FB88002B01D101230BE02E
:1053D000FB6800221A63FB881A46B968F86800F077
:1053E0002AFB034600E0022318461037BD4680BD65
:1053F00080B5BAB000AF78607B681B681B68C7F8DF
:10540000E4307B681B68DB68C7F8E0307B681B68AA
:105410005B69C7F8DC300023C7F8D8300023C7F831
:10542000D430D7F8E43003F00F03C7F8D830D7F8FA
:10543000D830002B0FD1D7F8E43003F02003002B35
:1054400009D0D7F8E03003F02003002B03D07868B0
:1054500000F007FC73E2D7F8D830002B00F0DE80B4
:10546000D7F8DC3003F00103002B06D1D7F8E03089
:1054700003F49073002B00F0D180D7F8E43003F0F0
:105480000103002B0BD0D7F8E03003F48073002B1E
:1054900005D07B685B6C43F001027B685A64D7F8E7
:1054A000E43003F00403002B0BD0D7F8DC3003F01A
:1054B0000103002B05D07B685B6C43F002027B6824
:1054C0005A64D7F8E43003F00203002B0BD0D7F86E
:1054D000DC3003F00103002B05D07B685B6C43F0EC
:1054E00004027B685A64D7F8E43003F00803002B09
:1054F00011D0D7F8E03003F02003002B05D1D7F806
:10550000DC3003F00103002B05D07B685B6C43F0BB
:1055100008027B685A647B685B6C002B00F00A828F
:10552000D7F8E43003F02003002B08D0D7F8E030A0
:1055300003F02003002B02D0786800F092FB7B6818
:105540001B685B6903F04003402B0CBF0123002361
:10555000DBB2C7F8D4307B685B6C03F00803002B28
:1055600003D1D7F8D430002B4FD0786800F09DFAE3
:105570007B681B685B6903F04003402B41D17B686B
:105580001B681433C7F89C30D7F89C3053E8003FB1
:10559000C7F89830D7F8983023F04003C7F8D030D8
:1055A0007B681B681433D7F8D020C7F8A820C7F849
:1055B000A430D7F8A410D7F8A82041E80023C7F8F2
:1055C000A030D7F8A030002BD9D17B68DB6B002B43
:1055D00013D07B68DB6B8A4A1A657B68DB6B1846E5
:1055E000FDF72DFE0346002B16D07B68DB6B1B6D91
:1055F0007A68D26B104698470EE0786800F0ACF9F4
:105600000AE0786800F0A8F906E0786800F0A4F9EC
:105610007B6800225A648DE100BF8BE17B681B6BC5
:10562000012B40F06781D7F8E43003F01003002B22
:1056300000F06081D7F8E03003F01003002B00F099
:1056400059810023BB607B681B681B68BB607B685B
:105650001B685B68BB60BB687B681B685B6903F0A9
:105660004003402B40F0CE807B68DB6B1B685B689F
:10567000A7F8BE30B7F8BE30002B00F0A9807B68D9
:105680009B8DB7F8BE209A4280F0A2807B68B7F865
:10569000BE20DA857B68DB6BDB69B3F5807F00F0C9
:1056A00088807B681B680C33C7F88830D7F888304F
:1056B00053E8003FC7F88430D7F8843023F4807370
:1056C000C7F8B8307B681B680C33D7F8B820C7F828
:1056D0009420C7F89030D7F89010D7F8942041E87C
:1056E0000023C7F88C30D7F88C30002BD9D17B68D9
:1056F0001B6814337B677B6F53E8003F3B673B6F4E
:1057000023F00103C7F8B4307B681B681433D7F863
:10571000B420C7F88020FB67F96FD7F8802041E8F4
:105720000023BB67BB6F002BE1D17B681B68143380
:105730003B663B6E53E8003FFB65FB6D23F0400387
:10574000C7F8B0307B681B681433D7F8B020FA660E
:10575000BB66B96EFA6E41E800237B667B6E002B58
:10576000E3D17B68202283F842207B6800221A6301
:105770007B681B680C33FB64FB6C53E8003FBB6425
:10578000BB6C23F01003C7F8AC307B681B680C338C
:10579000D7F8AC20BA657B65796DBA6D41E8002316
:1057A0003B653B6D002BE3D17B68DB6B1846FDF757
:1057B000D6FC7B6802225A637B689A8D7B68DB8DFE
:1057C0009BB2D31A9BB21946786800F0CFF8B3E0C9
:1057D0007B689B8DB7F8BE209A4240F0AD807B6815
:1057E000DB6BDB69B3F5807F40F0A6807B6802222B
:1057F0005A637B689B8D1946786800F0B7F89BE088
:10580000715B00087B689A8D7B68DB8D9BB2D31A35
:10581000A7F8CE307B68DB8D9BB2002B00F08E802A
:10582000B7F8CE30002B00F089807B681B680C3302
:10583000BB63BB6B53E8003F7B637B6B23F49073CC
:10584000C7F8C8307B681B680C33D7F8C8207A6467
:105850003B64396C7A6C41E80023FB63FB6B002BE3
:10586000E3D17B681B6814337B627B6A53E8003F9B
:105870003B623B6A23F00103C7F8C4307B681B68B6
:105880001433D7F8C4203A63FB62F96A3A6B41E8F3
:105890000023BB62BB6A002BE3D17B68202283F824
:1058A00042207B6800221A637B681B680C333B61D3
:1058B0003B6953E8003FFB60FB6823F01003C7F827
:1058C000C0307B681B680C33D7F8C020FA61BB611D
:1058D000B969FA6941E800237B617B69002BE3D158
:1058E0007B6802225A63B7F8CE301946786800F018
:1058F0003DF823E0D7F8E43003F08003002B09D013
:10590000D7F8E03003F08003002B03D0786800F074
:1059100040F914E0D7F8E43003F04003002B0ED038
:10592000D7F8E03003F04003002B08D0786800F08F
:1059300080F904E000BF02E000BF00E000BFE837EC
:10594000BD4680BD80B483B000AF786000BF0C3727
:10595000BD465DF8047B704780B483B000AF7860CB
:1059600000BF0C37BD465DF8047B704780B483B040
:1059700000AF78600B467B8000BF0C37BD465DF8FA
:10598000047B704780B586B000AFF860B9603B60BB
:105990001346FB713BE03B6AB3F1FF3F37D0FDF7A5
:1059A0009DFA02463B68D31A3A6A9A4202D33B6A8E
:1059B000002B01D103233AE0FB681B68DB6803F08E
:1059C0000403002B23D0BB68802B20D0BB68402B66
:1059D0001DD0FB681B681B6803F00803082B16D159
:1059E00000237B61FB681B681B687B61FB681B688D
:1059F0005B687B617B69F86800F057F8FB680822F8
:105A00005A64FB68002283F8402001230FE0FB6802
:105A10001B681A68BB681340BA689A420CBF01231E
:105A20000023DBB21A46FB799A42B4D00023184611
:105A30001837BD4680BD80B485B000AFF860B9604E
:105A40001346FB80FB68BA689A62FB68FA889A85FD
:105A5000FB68FA88DA85FB6800225A64FB68222218
:105A600083F84220FB681B69002B07D0FB681B688A
:105A7000DA68FB681B6842F48072DA60FB681B68B6
:105A80005A69FB681B6842F001025A61FB681B6897
:105A9000DA68FB681B6842F02002DA6000231846CF
:105AA0001437BD465DF8047B704780B495B000AFF5
:105AB00078607B681B680C337B637B6B53E8003F2B
:105AC0003B633B6B23F49073FB647B681B680C3374
:105AD000FA6C3A64FB63F96B3A6C41E80023BB63F0
